:020000040800F2
:1000000000000220D1110008B50E0008CF0E000834
:10001000270F0008290F00082B0F00080000000020
:1000200000000000000000000000000031A00008F7
:100030002D0F000800000000D1A0000835A1000825
:1000400021120008211200082112000821120008C4
:1000500021120008211200082112000821120008B4
:10006000211200082112000821120008310F000897
:10007000410F0008510F0008610F0008211200080D
:100080002112000821120008211200082112000884
:10009000710F0008810F00082112000821120008CA
:1000A00021120008910F00082112000821120008F7
:1000B0002112000821120008211200082112000854
:1000C0002112000821120008211200082112000844
:1000D00021120008A10F00082112000821120008B7
:1000E0002112000821120008211200082112000824
:1000F0002112000821120008211200082112000814
:100100002112000821120008211200082112000803
:1001100021120008211200082112000821120008F3
:1001200021120008211200082112000821120008E3
:1001300021120008211200082112000821120008D3
:1001400021120008211200082112000821120008C3
:1001500021120008211200082112000821120008B3
:1001600021120008211200082112000821120008A3
:100170002112000821120008211200082112000893
:100180002112000821120008211200082112000883
:1001900021120008000000002112000821120008AE
:1001A0002112000821120008211200082112000863
:1001B0002112000821120008211200082112000853
:1001C0002112000821120008211200082112000843
:0801D0002112000821120008B1
:1001E00010B5054C237833B9044B13B10448AFF371
:1001F00000800123237010BD701C0020000000004F
:10020000B82D010808B5034B1BB103490348AFF3F0
:10021000008008BD00000000741C0020B82D0108FB
:10022000F0B400EB4003DFF8880000EBC30000F1FE
:1002300018063069F7687568874232D3B368DC1BEB
:10024000631E934214D37D19D01900BF11F8013BEE
:1002500005F8013B013A05D011F8013B05F8013BD7
:10026000013AF3D1BFF35F8FF0600120F0BC70471B
:10027000C018904219D37819121B11F8013B00F8ED
:10028000013B013CF9D1141C05D011F8013B05F8E4
:10029000013B013AF9D1BFF35F8FF4600120F0BC5C
:1002A0007047C01B01389042CDD20020F0BC70478F
:1002B000489A00200000000000000000000000003C
:1002C00001F0FF01102A2BDB10F0070F08D010F807
:1002D000013B013A8B422DD010F0070F42B3F6D10B
:1002E000F0B441EA012141EA014122F007047FF024
:1002F00000070023F0E80256083C85EA010586EA7B
:10030000010685FA47F5A3FA87F586FA47F6A5FAB6
:1003100087F68EB9EED1F0BC01F0FF0102F00702C2
:1003200032B110F8013B013A83EA010313B1F8D16D
:100330000020704701387047002D06BF354603384E
:10034000073815F0010F07D1013015F4807F02BF87
:10035000013015F4C03F0130F0BC0138704700BFD8
:1003600053B94AB9002908BF00281CBF4FF0FF311C
:100370004FF0FF3000F070B9ADF1080C6DE904CE1C
:1003800000F006F8DDF804E0DDE9022304B0704770
:100390002DE9F047089E0D4604460F46002B4AD132
:1003A0008A42944665D9B2FA82F343B102FA03FC59
:1003B000C3F120029F4020FA02F217439C404FEA0B
:1003C0001C4E1FFA8CF5B7FBFEF1220C0EFB1177C9
:1003D00042EA074201FB05F090420AD91CEB0202F7
:1003E00001F1FF3780F01C81904240F219810239FF
:1003F0006244121AA4B2B2FBFEF00EFB102244EAD1
:10040000024400FB05F5A5420AD91CEB040400F1E7
:10041000FF3280F00781A54240F204816444023833
:1004200040EA0140641B00211EB1DC400023C6E904
:100430000043BDE8F0878B4208D9002E00F0ED8024
:100440000021C6E900050846BDE8F087B3FA83F14C
:10045000002949D1AB4202D3824200F2F880841ACB
:1004600065EB030201201746002EE2D0C6E90047E3
:10047000DFE702B9FFDEB2FA82F3002B40F0908092
:100480008A1A4FEA1C471FFA8CFE0121B2FBF7F5CE
:1004900007FB1520220C42EA00420EFB05F09042B9
:1004A00008D91CEB020205F1FF3802D2904200F29B
:1004B000CB804546121AA4B2B2FBF7F007FB10221C
:1004C00044EA02440EFB00FEA64508D91CEB0404D6
:1004D00000F1FF3202D2A64500F2BB801046A4EB29
:1004E0000E0440EA05409FE7C1F120078B4022FA45
:1004F00007FC4CEA030C05FA01F420FA07F3FD406F
:100500004FEA1C492343B5FBF9F81FFA8CFE09FB9F
:1005100018551C0C44EA054408FB0EF5A54202FAE6
:1005200001F200FA01F00BD91CEB040408F1FF3AC8
:1005300080F08880A54240F28580A8F102086444DA
:10054000641B9DB2B4FBF9F309FB134445EA044470
:1005500003FB0EFEA64508D91CEB040403F1FF358E
:100560006CD2A6456AD9023B644443EA0843A3FB24
:100570000295A4EB0E04AC42C846AE4656D353D007
:1005800056B1B0EB080264EB0E0404FA07F7CA4058
:10059000CC401743C6E9007418460021BDE8F08737
:1005A000C3F1200102FA03FC20FA01F225FA01F15D
:1005B0009D402A434FEA1C471FFA8CFEB1FBF7F01F
:1005C00007FB1015110C41EA054100FB0EF58D42A9
:1005D00004FA03F408D91CEB010100F1FF382FD213
:1005E0008D422DD902386144491B92B2B1FBF7F517
:1005F00007FB151142EA014205FB0EF1914208D9B1
:100600001CEB020205F1FF3816D2914214D9023DCB
:100610006244521A45EA004138E73146304608E75D
:100620003946E6E61046FBE64845A9D2B9EB020892
:1006300065EB0C0E013BA3E74546EAE72B4694E742
:100640004046D1E7D0467BE7023D624432E70846A8
:100650000AE76444023842E7704700BF08B511F06A
:10066000D3F911F0D2F9642007F073FFF9E7000025
:1006700008B50FF00BFF01221146064801F0D2FF2A
:1006800003E001339BB2632BFBD90FF019FF00236A
:10069000F9E700BF0004004808B505480FF0EEFD7B
:1006A00003480FF02BFE012007F053FFF8E700BFCF
:1006B0002C14002008B50FF07FFB0FF083FB012006
:1006C00007F047FFF9E7704700207047704708B50B
:1006D0000EF080FB0AF0BCFE08BD000030B599B0FA
:1006E000354B17930022012117A807F039FF334D2E
:1006F00028600124009400231A46032109F09CFA83
:1007000064230093002322460421286809F094FA08
:100710002D6808F045FE0246009400232146284635
:1007200009F08AFA264C0DF1480CA646BEE80F00E7
:10073000ACE80F00DEF80030CCF80030002112A841
:1007400007F0EDFE1F4B18600DF1340C04F1140E90
:10075000BEE80F00ACE80F00DEF80030CCF8003047
:1007600000210DA807F0DBFE174B18600DF1200CDF
:1007700004F1280EBEE80F00ACE80F00DEF80030F0
:10078000CCF80030002108A807F0C9FE0F4B186014
:100790000DF10C0E04F13C0CBCE80F00AEE80F00AC
:1007A000DCF80030CEF80030002103A807F0B7FED7
:1007B000074B186019B030BDC90401089C1C00200B
:1007C000D02D01088C1C0020981C0020941C0020B7
:1007D000901C002000B583B01A4B9A6C42F00402C2
:1007E0009A649A6C02F004020092009A9A6C42F0A9
:1007F00001029A649B6C03F001030193019B0022A8
:1008000005210B2000F04CFD0B2000F08FFD002295
:1008100005210C2000F044FD0C2000F087FD002293
:1008200005210D2000F03CFD0D2000F07FFD002291
:1008300005210E2000F034FD0E2000F077FD03B0FE
:100840005DF804FB0010024010B51248124B036023
:10085000002343604FF440728260C36003744374AA
:10086000837404224261082282611F21C1610262F5
:1008700001224262062181620D24C4620163426347
:100880008363C36301F084F800B910BD00F0B8F9C8
:10089000FBE700BFA01C00200064004010B59CB026
:1008A000044600211791189119911A911B91542215
:1008B00002A811F01BFA2268224B9A4201D01CB008
:1008C00010BD4FF4805302934FF00073109302A8B1
:1008D00003F0A8FC002832D11B4B9A6D42F0007245
:1008E0009A659A6D02F000720092009ADA6C42F0FA
:1008F0000202DA64DB6C03F002030193019B4FF404
:100900004073179302231893002419941A93092310
:100910001B9317A90D4801F01DFD0D4B5A6842F4B9
:1009200080225A605A6842F400225A602246052109
:10093000152000F0B5FC152000F0F8FCBFE700F032
:100940005FF9C9E70064004000100240000400485D
:10095000000001402DE9F0438DB000240794089475
:1009600009940A940B94644BDA6C42F00402DA6442
:10097000DA6C02F004020192019ADA6C42F0200271
:10098000DA64DA6C02F020020292029ADA6C42F027
:100990004002DA64DA6C02F040020392039ADA6CE5
:1009A00042F00102DA64DA6C02F001020492049A65
:1009B000DA6C42F00202DA64DA6C02F002020592AA
:1009C000059ADA6C42F00802DA64DB6C03F0080383
:1009D0000693069B012210214FF0904001F022FE69
:1009E000464F22461021384601F01CFEDFF81881E0
:1009F00001221146404601F015FE22464FF40261E5
:100A0000404601F00FFE46F2010307930894099453
:100A100007A9384601F09EFC49F6EE4307930326EA
:100A20000896099407A9384601F094FC4FF48063B6
:100A300007930896099407A9314801F08BFC072316
:100A4000079308940125099507A94FF0904001F0FC
:100A500081FC48F2081307930896099407A94FF000
:100A6000904001F077FC4FF01009CDF81C900895EC
:100A7000099502230A9307A94FF0904001F06AFC00
:100A8000CDF81C90089509940A9407A9384601F0FE
:100A900061FC0795089509950A9407A9404601F05D
:100AA00059FC4FF2D64307930896099407A940468C
:100AB00001F050FC4FF402630793089509940A94DF
:100AC00007A9404601F046FC4FF4407307931223F8
:100AD000089309940A9408230B9307A9384601F058
:100AE00039FC042307930896099407A9054801F0E7
:100AF00031FC0DB0BDE8F083001002400008004852
:100B000000180048000C0048000400480EB430B53E
:100B10008CB00FAB13F8044B0B9324238DF80430E7
:100B2000174D2877082229464FF411600DF0BCFFBD
:100B30000023AB60EB602B616B61AB6108E00B9A4B
:100B4000111D0B911068991C0D4A42F821000133C8
:100B50009C42F4DC002305E0094AD15C0DF105025A
:100B6000D15401331F2BF7D90A238DF825302221C8
:100B700001A810F06FFC0CB0BDE8304003B0704726
:100B8000081D00200FB4F0B583B000AF07F12003BB
:100B900053F8045B6E467B602A460021084611F03C
:100BA00087F8041E18DD04F1080323F00703ADEBFA
:100BB000030D07F124037B602A46611C684611F08F
:100BC00077F8A1B2684610F045FCB5460C37BD4633
:100BD000BDE8F04004B07047B546F7E7014B5868F0
:100BE000704700BF001000E008B50268034B9A424E
:100BF00000D008BD00F024FBFBE700BF002C014043
:100C000072B6FEE700B595B03822002106A811F0B3
:100C10006DF800200190029003900490059002F07E
:100C200021FD212306934FF48033079301220C9278
:100C300002230D9303210E910F921422109211930F
:100C40001293139306A802F0CDFD80B90F230193F0
:100C500003230293002303930493059304210DEBD4
:100C6000010003F023F920B915B05DF804FBFFF78C
:100C7000C7FFFFF7C5FF000008B500F0D2FAFFF785
:100C8000C1FFFFF767FEFFF7A5FDFFF7DDFD00F0F1
:100C900015F800F0E7F910F087FB064A536943F0B6
:100CA000100353610FF02EFCFFF718FD07F032FC24
:100CB000FEE700BF00ED00E07047000008B51048F7
:100CC000104B03604FF482734360002383604FF442
:100CD000E062C260036143614FF4007282610822E6
:100CE000C2610362436283620722C2620363436399
:100CF00003F0F2FE00B908BDFFF782FFFBE700BF7B
:100D0000E81D00200030014010B588B00023039397
:100D1000049305930693079302682D4B9A4201D0E2
:100D200008B010BD044603F560431A6E42F48052C9
:100D30001A661A6E02F480520192019ADA6C42F03D
:100D40000102DA64DB6C03F001030293029BE023EF
:100D5000039302230493032306930523079303A914
:100D60004FF0904001F0F6FA1A481B4B03600A233B
:100D7000436000238360C36080220261436183611A
:100D8000C3614FF40053036200F042FBD0B9114B32
:100D9000A3659C621148124B03600B234360102330
:100DA00083600023C3608022026143618361C36169
:100DB0004FF40053036200F02BFB30B9074B63651F
:100DC0009C62ADE7FFF71CFFE1E7FFF719FFF5E7CE
:100DD00000300140281D002030000240881D002006
:100DE0000800024000B583B00D4B1A6E42F00102BC
:100DF0001A661A6E02F001020092009A9A6D42F091
:100E000080529A659B6D03F080530193019B0022F1
:100E10000F216FF0010000F043FA03B05DF804FB0E
:100E20000010024030B589B004461D4B1A6E42F4E2
:100E300000621A661B6E03F400630193019B02A912
:100E400003A803F0BDF903F0A9F9164AA2FB002399
:100E50009B0C013B1448154A026040F2E732C26025
:100E6000436000230361836004F05CFC054610B11D
:100E7000284609B030BD0C4804F04EFA054600285B
:100E8000F6D1192000F052FA0F2C01D90125EFE715
:100E900000222146192000F003FA054B1C60E7E709
:100EA0000010024083DE1B434C1E0020002C01403A
:100EB00008000020FEE704207146084203D0EFF34B
:100EC000098000F008B8EFF3088000F004B808B516
:100ED000FFF7F1FFFEE78EB003680D9343680C93B4
:100EE00083680B93C3680A93036909934369089362
:100EF00083690793C36906934FF0E023D3F8282D45
:100F00000592D3F82C2D0492D3F8302D0392D3F808
:100F10003C2D0292D3F8342D0092D3F8383D019342
:100F200000BE0EB07047FEE7FEE7FEE77047000028
:100F300008B5024800F041FC08BD00BF881D002034
:100F400008B5024800F039FC08BD00BF9C1E002017
:100F500008B5024800F031FC08BD00BF281D002084
:100F600008B5024800F029FC08BD00BFFC1E0020A7
:100F700008B5024802F034F908BD00BFF0C40020F3
:100F800008B5024801F01AF908BD00BFA01C0020F6
:100F900008B5024804F046FA08BD00BF4C1E002008
:100FA00008B5024804F070FD08BD00BF5C1F0020BA
:100FB0000120704708B510F02BFF162303604FF097
:100FC000FF3008BD08B54FF0FF31FFF7F3FFFEE734
:100FD00070B50C461646002506E0AFF300802146AA
:100FE00001F8010B01350C46B542F6DB304670BD09
:100FF0004FF0FF3070474FF400534B6000207047B4
:10100000012070470020704710B503460C4A0D4977
:101010000D48006840B10C4800680344521A9342DE
:1010200006D8094A136010BD0748084C0460F2E76F
:1010300010F0EEFE0C2303604FF0FF30F3E700BF2B
:101040000000022000040000981E002050CB002069
:10105000034AD2F8883043F47003C2F888307047EE
:1010600000ED00E008B51748174B03604FF4E1337B
:10107000436000238360C36003610C22426183618B
:10108000C36103624362836205F088FA70B900218C
:101090000C4805F069FB60B900210A4805F0C2FB65
:1010A00050B9084805F01EFB48B908BDFFF7A8FD78
:1010B000EDE7FFF7A5FDEFE7FFF7A2FDF1E7FFF78B
:1010C0009FFDF2E75C1F00200038014030B59DB065
:1010D000044600211791189119911A911B915422DD
:1010E00002A810F003FE2268334B9A4201D01DB0D3
:1010F00030BD0123029302A803F094F8002852D1D6
:101100002E4B1A6E42F480421A661A6E02F4804226
:101110000092009ADA6C42F00102DA64DB6C03F0B0
:1011200001030193019B4FF4C063179302231893AB
:10113000002519951A9307231B9317A94FF0904088
:1011400001F008F91E481F4B0360182343608560B7
:10115000C5608023036145618561C561056200F05A
:1011600057F918BB164BE3679C621748174B03608F
:1011700019234360102383600023C360802202612F
:1011800043618361C361036200F042F988B90E4B89
:10119000A3679C6200220521252000F081F825200C
:1011A00000F0C4F8A3E7FFF72BFDA9E7FFF728FD40
:1011B000D8E7FFF725FDEAE70038014000100240BC
:1011C0009C1E00201C000240FC1E00204400024027
:1011D0000D4885460D480E490E4A002302E0D458BA
:1011E000C4500433C4188C42F9D30B4A0B4C00236F
:1011F00001E013600432A242FBD3FFF729FF10F095
:101200000DFEFFF739FDFEE7000002200000002080
:101210006C180020C06B0108701C002050CB00200F
:10122000FEE710B5032000F01DF80F20FFF7FAFDD0
:1012300010B10124204610BD0446FFF7D3FDF9E7A5
:10124000034A1368034909680B441360704700BFE1
:10125000EC1F002004000020014B1868704700BFFD
:10126000EC1F002010B50446C31E042B0FD80A4AF9
:10127000D36823F4E0631B041B0C240204F4E06431
:10128000234343F0BF6343F40033D36010BDA62172
:101290000248FFF711FDEAE700ED00E05C2E0108CF
:1012A00070B505460C4616460F2A25D80F2C28D8AF
:1012B0001B4BDB68C3F30223C3F10702042A28BFD8
:1012C0000422191D062921D9033B4FF0FF3101FAF1
:1012D00002F224EA02049C40994026EA010644EA0C
:1012E0000602002D14DB1201D2B205F1604505F5AE
:1012F000614585F8002370BDBE210A48FFF7DCFC7C
:10130000D4E7BF210748FFF7D7FCD1E70023DCE78C
:1013100005F00F051201D2B2034B5A55EBE700BF9F
:1013200000ED00E05C2E010814ED00E010B5041E95
:101330000ADB002C07DB04F01F0264090123934041
:10134000044A42F8243010BDD2210348FFF7B4FC10
:10135000EFE700BF00E100E05C2E010830B4C46C90
:10136000056D6560446D14B1846DC56D6560446C38
:1013700004F01F0C012404FA0CF4056C6C60046882
:1013800063608368102B05D0036899600368DA6096
:1013900030BC704703689A600368D960F8E70000C2
:1013A00003680C4A934213D80B49DBB2083B0B4A43
:1013B000A2FB0323426C22F003020A448264084A1F
:1013C000C264C3F30413012202FA03F303657047F6
:1013D0000449EAE70704024000080240CDCCCCCC27
:1013E00080080240200802400379074A1A4492000C
:1013F0004265064A8265013B03F01F03012202FA9F
:1014000003F3C365704700BF3F82001040090240EC
:10141000002800F0ED8010B504460368754A934239
:1014200031D0143293422ED0143293422BD0143246
:10143000934228D01432934225D01432934222D0C2
:10144000143293421FD0143293421CD002F55D72C5
:10145000934218D01432934215D01432934212D0D2
:10146000143293420FD0143293420CD01432934270
:1014700009D01432934206D01432934203D0A321F0
:101480005D48FFF719FCA36823B1102B02D0B3F518
:10149000804F6DD1E368402B01D0002B6DD12369C3
:1014A000802B01D0002B6DD163692BB1B3F5807F08
:1014B00002D0B3F5007F6AD1A3692BB1B3F5806F79
:1014C00002D0B3F5006F67D1E3690BB1202B68D16F
:1014D000236A43B1B3F5805F05D0B3F5005F02D056
:1014E000B3F5405F62D16368732B64D82168434BC6
:1014F000994265D8424B0B44424AA2FB03231B0985
:101500009B006364404B2364022384F825300A68FF
:1015100022F4FF4222F07002A368E06803432069CE
:10152000034360690343A0690343E0690343206AFE
:10153000034313430B602046FFF732FFA368B3F564
:10154000804F48D0A36C22791A60E36C226D5A60F8
:101550006368013B032B41D900236365A365E36501
:101560000020E063012384F8253084F8240010BDB6
:10157000A4212148FFF7A0FB8CE7A5211E48FFF717
:101580009BFB8CE7A6211C48FFF796FB8CE7A72165
:101590001948FFF791FB8FE7A8211748FFF78CFB4D
:1015A00092E7A9211448FFF787FB91E7AA21124887
:1015B000FFF782FB97E7AC210F48FFF77DFB95E72C
:1015C000124B0B440F4AA2FB03231B099B006364CD
:1015D0000F4B236498E700236360B3E72046FFF7CF
:1015E00003FF636D00221A60A36DE26D5A60B7E7D6
:1015F0000120704708000240982E010807040240AD
:10160000F8FFFDBFCDCCCCCC00000240F8FBFDBF05
:1016100000040240F8B504460E4617461D465A1E01
:10162000294B9A4210D894F82430012B4AD0012338
:1016300084F8243094F82530DBB2012B0AD0002343
:1016400084F824300220F8BD40F2AB111F48FFF7A8
:1016500033FBE8E7022384F825300023E3632268A4
:10166000136823F0010313602B463A4631462046A7
:10167000FFF774FE236BD3B12268136843F00E03A7
:101680001360A36C1A6812F4803F03D01A6842F406
:1016900080721A60636D1BB11A6842F480721A601E
:1016A0002268136843F0010313600020CBE722682F
:1016B000136823F0040313602268136843F00A03DD
:1016C0001360DEE70220BEE7FEFF0300982E01084C
:1016D000034690F82520D2B2022A09D00422C26320
:1016E0000120012283F82520002283F8242070475E
:1016F00001680A6822F00E020A60816C0A6822F40E
:1017000080720A6001680A6822F001020A60426C75
:1017100002F01F01006C01228A404260DA6C196DF0
:1017200051605A6D42B1116821F4807111609A6D57
:10173000D96D51600020D4E70020D2E708B590F8B9
:101740002530DBB2022B09D00423C363012380F8C8
:101750002530002280F82420184608BD026813684E
:1017600023F00E0313600268136823F00103136073
:10177000826C136823F480731360436C03F01F02C0
:10178000016C012393404B60C36C026D5A60436D42
:1017900033B11A6822F480721A60836DC26D5A6088
:1017A000012380F82530002380F82430836B13B1A7
:1017B00098470020D1E70020CFE738B5036C1968BF
:1017C00004682568436C03F01F0304229A400A4210
:1017D00015D015F0040F12D0236813F0200F03D199
:1017E000236823F004032360436C03F01F02016CA1
:1017F000042393404B60036B03B1984738BD02222A
:101800009A400A421CD015F0020F19D0236813F039
:10181000200F06D1236823F00A032360012380F8F8
:101820002530436C03F01F02016C022393404B6090
:10183000002380F82430C36A002BDFD09847DDE70F
:10184000082202FA03F30B42D8D015F0080FD5D0C6
:10185000236823F00E032360436C03F01F03016C25
:10186000012202FA03F34B60C26380F825200023B3
:1018700080F82430436B002BC0D09847BEE70000AF
:1018800010B402681D4B9A4228D01D491D4B9A4244
:1018900026D00164D2F8803023F4F813446B43EA75
:1018A0000443C2F8803001F1700343640268D2F847
:1018B000803023F07063846B43EA0463C2F88030A5
:1018C00001F1B003836401F5C473C36401F51873B7
:1018D000036501F51E7343650B4607E00A49D5E72A
:1018E00001F5D461D5E7002243F8042B01F55472C9
:1018F0009A42F8D85DF8044B704700BF006800407A
:1019000000A40040006C004050A7004070B54C6837
:10191000E4B90D698C6825430C6845EA8445CC69B7
:101920000E6A44EA06648E6934434E693443CE68D5
:101930003443406D03EBC30300EBC30E40F8335058
:10194000CEF804400EF1080E002019E00C698D68F5
:1019500025430C68254345F08045E0E702EB000C89
:101960009CF803409CF802301B0443EA04639CF893
:10197000014043EA0423145C23434EF8043B043043
:10198000CB89024CE35C8342E8D870BD0C2F010880
:10199000002800F0B18138B504460368824A9342BA
:1019A0000CD002F58062934208D002F58062934227
:1019B00004D04FF495717D48FFF77EF922687A4B89
:1019C0009A4257D0A3682BB1B3F5807F02D0B3F50C
:1019D000407F58D1E368042B5BD8237C012B5ED871
:1019E000637C012B61D8A37C012B64D86369013B24
:1019F000B3F5007F65D2A369013B7F2B67D8E3690C
:101A0000013BFF2B69D8236A013B7F2B6BD8A3686E
:101A1000B3F5407F6DD0636B1C2B00F29280A36BFB
:101A2000082B00F29480E36B1BB1B3F1807F40F090
:101A3000948094F85C30002B00F0958022689369C4
:101A400023F010039361FFF707FC054623689A69AA
:101A500012F0080F00F08D80FFF7FEFB401B0A28F4
:101A6000F4D9236E43F001032366032384F85C302A
:101A7000012038BD63680F2BA4D940F22D114B48CB
:101A8000FFF71AF99EE740F22F114848FFF714F9C3
:101A9000A0E74FF498714548FFF70EF99DE740F233
:101AA00031114248FFF708F99AE74FF499713F481E
:101AB000FFF702F997E740F233113C48FFF7FCF8D3
:101AC00094E74FF49A713948FFF7F6F893E740F23C
:101AD00035113648FFF7F0F891E74FF49B71334822
:101AE000FFF7EAF88FE740F237113048FFF7E4F8E4
:101AF0008DE7636A013B1F2B11D8A36A013B0F2BB3
:101B000013D8E36A013B1F2B15D8236B013B0F2B26
:101B100081D940F23D112548FFF7CEF87BE74FF41D
:101B20009D712248FFF7C8F8E7E740F23B111F48D4
:101B3000FFF7C2F8E5E74FF49E711C48FFF7BCF8C9
:101B4000E3E740F23F111948FFF7B6F867E74FF4B3
:101B5000A0711648FFF7B0F865E740F2411113484D
:101B6000FFF7AAF865E784F85D302046FEF796FE99
:101B700064E79A6942F001029A61FFF76DFB05463E
:101B800023689A6912F0010F12D1FFF765FB401B21
:101B90000A28F5D9236E43F001032366032384F852
:101BA0005C30012065E700BF00640040D02E0108D2
:101BB0009A6942F002029A612268504B9A4242D0DE
:101BC000237C012B45D02268936943F04003936145
:101BD000637C012B43D02268936923F48043936193
:101BE000A37C012B41D02268936943F48053936115
:101BF0002268936923F44073A1680B4393612268C0
:101C0000936923F0A40393612268136923F01003FE
:101C10001361E368012B2ED0002B31D0022B54D05E
:101C20002268936943F0800393612268136943F04B
:101C300010031361E368032B22D12268936943F0F8
:101C4000200393611CE06268A3F58063C3F800255C
:101C5000B6E72268936923F040039361B8E72268EE
:101C6000936943F480439361BAE72268936923F44C
:101C700080539361BCE72268936943F00403936146
:101C8000A3695A1EE369013B1B0243EA4263226ACD
:101C9000013A13436269013A216843EA0243CB6186
:101CA000A368B3F5407F16D02268D2F8C030E16B4C
:101CB0000B43C2F8C0302046FFF7E2FD0020A065CC
:101CC0002066012384F85C30D3E62268936943F0F0
:101CD00020039361D4E7A36A013BE26A013A43EA35
:101CE0000223226B013A43EA0213626A013A216835
:101CF00043EA0243CB60D7E701207047006400400D
:101D000090F85C30DBB2012B05D0036E43F0040386
:101D1000036601207047022380F85C3002689369F3
:101D200023F001039361002303661846704790F87F
:101D30005C30DBB2022B39D10268936943F00103B6
:101D4000936100230268916911F0010F0CD10A2BF5
:101D500001D80133F6E7036E43F001030366032362
:101D600080F85C3001207047936923F01003936181
:101D700000230268916911F0080F0CD00A2B01D8DA
:101D80000133F6E7036E43F001030366032380F893
:101D90005C3001207047936943F002039361002394
:101DA0008365012280F85C2018467047036E43F07B
:101DB0000803036601207047F8B505460C46164631
:101DC0004B6813B1B3F1804F62D16368002B6BD1C4
:101DD0002368B3F5006F61D2A36813B1B3F1005F5C
:101DE0006CD1E36863B3B3F5803F29D0B3F5003F0E
:101DF00026D0B3F5403F23D0B3F5802F20D0B3F5E4
:101E0000A02F1DD0B3F5C02F1AD0B3F5E02F17D0F7
:101E1000B3F5002F14D0B3F5102F11D0B3F5202F48
:101E20000ED0B3F5302F0BD0B3F5402F08D0B3F55B
:101E3000502F05D0B3F5602F02D0B3F5702F43D1EA
:101E4000236913B1B3F1004F44D1636913B1B3F502
:101E5000801F45D1A36913B1B3F5001F46D1E369D3
:101E600013B1B3F5000F47D1236AFF2B4AD895F879
:101E70005C30DBB2022B5DD12B68D3F8C42012F4A6
:101E8000001F45D02B6E43F400732B66012056E0F3
:101E90004FF404612A48FEF70FFF96E740F643012E
:101EA0002748FEF709FF97E72368B3F1005F93D354
:101EB00040F647012248FEF7FFFE8DE740F6490154
:101EC0001F48FEF7F9FE8CE740F64A011C48FEF772
:101ED000F3FEB5E740F64B011948FEF7EDFEB4E717
:101EE00040F64C011648FEF7E7FEB3E740F64D0119
:101EF0001348FEF7E1FEB2E740F64E011048FEF748
:101F0000DBFEB1E740F64F010D48FEF7D5FEAEE728
:101F1000D3F8C470C7F301473B46324621462846F2
:101F2000FFF7F4FC2A680123BB40C2F8CC30AB6554
:101F3000002004E02B6E43F008032B660120F8BD5F
:101F4000D02E01082DE9F04105460F4614461E46E5
:101F500090F85C805FFA88F8A1F14003012B10D85B
:101F6000B8F1020F77D1402F11D02B68D3F8982009
:101F700012F00F0F21D12B6E43F480732B660120DA
:101F80006EE040F6B6013748FEF796FEE8E72B68AC
:101F9000D3F8902012F00F0F05D12B6E43F480730D
:101FA0002B6601205CE0D3F89000C0F30120AA6CFE
:101FB00000EBC00302EBC30208E0D3F89800C0F3C3
:101FC0000120EA6C00EBC00302EBC302136803F0CC
:101FD0008043636023BB1368C3F38A4323601368A1
:101FE00003F00053A360136803F000432361938858
:101FF000E361536803F47023E360536803F48013D0
:102000006361536803F40013A361D37903F07F0382
:1020100023625368DB0F636208324FF0000C0AE062
:10202000136823F060432360D9E712F80C3006F8F8
:102030000C300CF1010CE3890B49CB5C6345F4D8FF
:10204000402F04D02B68C3F89C00002008E02B68C8
:10205000C3F89400F9E72B6E43F008032B660120C8
:10206000BDE8F081D02E01080C2F0108F8B5064616
:102070000C46174690F85C50EDB211F07F4F0FD12F
:1020800014F4C07F02D07B1E062B0FD8013DEDB2A9
:10209000012D11D9336E43F0020333660120F8BDE0
:1020A00040F689213F48FEF707FEE9E740F68C211C
:1020B0003C48FEF701FEE9E73268936D14F0070033
:1020C00002D013F0010F23D014F0380F02D013F018
:1020D000020F1DD014F4E07F02D013F0040F17D0CC
:1020E00014F4F05F02D013F0080F11D014F4604F15
:1020F00002D013F0100F0BD014F4403F02D013F0B5
:10210000200F05D014F47C0F06D013F0400F03D13C
:10211000D16D41F00101D16510B113F0010F23D150
:1021200014F0380F02D013F0020F1DD114F4E07F29
:1021300002D013F0040F17D114F4F05F02D013F0A3
:10214000080F11D114F4604F02D013F0100F0BD10F
:1021500014F4403F02D013F0200F05D114F47C0F8B
:1021600007D013F0400F04D03268D36D43F0020360
:10217000D36514F0800F05D03268D2F8DC303B43D1
:10218000C2F8DC3014F4807F05D03268D2F8E03039
:102190003B43C2F8E0303268536D2343536500205F
:1021A0007DE700BFD02E0108704770477047704729
:1021B0007047704770477047704770472DE9F84384
:1021C000044603681A6D02F4E0595A6D09EA0209DF
:1021D0001A6D02F007085A6D08EA02081F6D07F031
:1021E00038075A6D17401D6D05F471055A6D15407D
:1021F0001E6D06F460265A6D16401A6D12F0400FDF
:1022000003D05A6D12F0400F51D123681A6D12F4A9
:10221000807F03D05A6D12F4807F4DD1B9F1000F49
:1022200056D1B8F1000F5BD1002F61D123681A6D30
:1022300012F4007F03D05A6D12F4007F5FD123683F
:102240001A6D12F0800F03D05A6D12F0800F5DD11D
:1022500023681A6D12F4005F03D05A6D12F4005F08
:102260005FD123681A6D12F4004F03D05A6D12F437
:10227000004F5DD123681A6D12F4804F0AD05A6D59
:1022800012F4804F06D04FF480421A65236E43F05B
:1022900080032366002E52D125B123681D65236E6D
:1022A0002B432366236E002B50D1BDE8F8834022D8
:1022B0001A65FFF780FFA8E7D3F8D810D3F8E0201D
:1022C0004FF48070186511402046FFF771FFA5E7B5
:1022D0002368C3F8509049462046FFF765FFA0E702
:1022E0002368C3F85080414620460EF02BF89BE748
:1022F00023681F6539462046FFF757FF96E74FF4DE
:1023000000721A652046FFF751FF98E7D3F8D41002
:10231000D3F8DC208020186511402046FFF747FFE6
:1023200096E74FF400521A652046FFF742FF98E700
:102330004FF400421A652046FFF73CFF9AE72368F6
:102340001E6531462046FFF738FFA5E72046FFF718
:1023500033FFAAE72DE9F04182B080460C46B0F188
:10236000904F1AD0AA4B984217D003F58063984239
:1023700013D003F5806398420FD003F58063984231
:102380000BD003F58063984207D003F58063984231
:1023900003D0A9219F48FEF78FFC23689AB212B19F
:1023A0001B0C1B041BB1AA219A48FEF785FC63682D
:1023B000012B10D9B3F5041F0DD011D8B3F5881F28
:1023C00009D003D9B3F5901F05D012E0032B04D92F
:1023D000113B012B0DD80025A3E0022B09D3FAE70E
:1023E000B3F5441FF7D0B3F5481FF4D0B3F5081F79
:1023F000F1D0AB218748FEF75FFCECE7E368032BE5
:1024000017D8D8F80820690003238B4022EA03027A
:10241000E3688B401343C8F80830D8F8042022EA58
:1024200007026368C3F30013AB401343C8F80430DA
:1024300086E0BB217748FEF73FFCE2E7CC217548F8
:10244000FEF73AFC85E0B8F1904F1AD0704B9845F2
:1024500017D003F58063984513D003F58063984542
:102460000FD003F5806398450BD003F58063984542
:1024700007D003F58063984503D0D9216548FEF75E
:102480001BFC23690F2B10D8EA08083258F82200E9
:1024900005F0070189000F238B4020EA0300236920
:1024A0008B40034348F8223065E0DA215948FEF7B3
:1024B00003FCE9E7052300E000238B4003430232DD
:1024C000554941F82230554B9A68F34322EA0601F8
:1024D000606810F4801F01D046EA02014F4A916003
:1024E000D26803EA0201606810F4001F01D046EAD6
:1024F00002014A4AD160526803EA0201606810F49E
:10250000003F01D046EA0201444A5160126813407C
:10251000616811F4803F01D046EA02033F4A13602C
:102520000135266836FA05F26FD00127AF403E40EC
:10253000F6D0636803F00303013B012B7FF65EAF27
:10254000636803F00303032B0FD0A368022B3FF64D
:1025500075AFD8F80C20690003238B4022EA0302F0
:10256000A3688B401343C8F80C30636803F003037F
:10257000022B3FF468AFD8F80020690003238B409A
:1025800022EA0302636803F003038B401343C8F895
:102590000030636813F4403FC2D0214B1A6E42F002
:1025A00001021A661B6E03F001030193019BAA0846
:1025B000911C194B53F8210005F0030189000F23EA
:1025C0008B4020EA0300B8F1904F3FF475AF104BF9
:1025D000984512D003F58063984510D003F58063C9
:1025E00098450ED003F5806398450CD003F58063C1
:1025F00098453FF45FAF06235FE701235DE70223C1
:102600005BE7032359E7042357E702B0BDE8F081F5
:10261000000400481C2F0108000001400004014094
:102620000010024070B5054614460E4621B1012C3B
:1026300008D86CB1AE6170BD4FF4CD710548FEF79E
:102640003BFBF4E740F29B110248FEF735FBF0E755
:10265000AE62F0E71C2F010838B512F4804F43D06A
:102660000468B4F8503091F800C04FEACC0E1EFA5E
:1026700083F32344B3F80244C4F309048B69A342EF
:1026800028D31B1B8B618B697BB9056835F82C300F
:102690009BB223F4804323F0700383F4005343F48C
:1026A000004343F0800325F82C3012F0400F0ED089
:1026B00002680D7832F825309BB223F4E04323F012
:1026C000700343F4004343F0C00322F8253024B9DB
:1026D000204638BD00238B61D5E723460A89496926
:1026E000006805F025F8F3E70468B4F8503091F875
:1026F00000C04FEACC0E1EFA83F32344B3F806441D
:10270000C4F309048B69A3422FD31B1B8B618B6914
:102710007BB9056835F82C309BB223F4804323F055
:10272000700383F4005343F4004343F0800325F81F
:102730002C3012F0400F0FD1026891F800C032F82F
:102740002C309BB223F4E04323F0700343F40043A6
:1027500043F0C00322F82C30002CB9D023464A891C
:102760004969006804F0E4FFB2E700238B61CEE71B
:10277000002876D030B587B0044602683A4B9A42BA
:1027800003D087213948FEF797FA94F8A9323BB174
:10279000032384F8A932206804F0ABF8002320E07A
:1027A00084F8A83220460EF00BFFF1E75A1C02EB2A
:1027B000820104EBC1010120487002EB820104F8A0
:1027C000313003EB830104EBC101CB8602EB820CB9
:1027D00004EBCC0C00208CF803008863C863086409
:1027E000D3B260688342E1D3002316E003EB830297
:1027F00004EBC202002182F8691182F8683182F884
:102800006B11C2F87811C2F87C1103EB830204EB60
:10281000C202C2F880110133DBB29842E6D8A44666
:102820005CF8105BEE46BCE80F00AEE80F00DCF889
:102830000030CEF80030231D0ECB284604F063F89C
:10284000002384F82430012384F8A932E369012BA2
:1028500002D0002007B030BD204600F0EDFE002081
:10286000F8E70120704700BF005C0040582F0108C6
:1028700090F8A832012B0ED010B50446012380F841
:10288000A832006804F02CF8206804F080FB0020D7
:1028900084F8A80210BD0220704770B505460C46AA
:1028A000164612F0400F00F009810268B2F850306D
:1028B0000978C80010FA83F31344B3F80224C2F372
:1028C0000902A369934251D99B1AA361A369002B02
:1028D00068D16378002B4CD12A68B2F8503012FAD4
:1028E00083F30344B3F8022492B222F4F84292B282
:1028F000A3F80224B3F802246FEA42426FEA52427C
:1029000092B2A3F802242A686378002B3DD1B2F872
:10291000503012FA83F3227803EBC203B3F8062493
:1029200092B222F4F84292B2A3F80624B3F8062435
:102930006FEA42426FEA524292B2A3F8062421782B
:1029400028460EF081FE16F4804F40D02A68217888
:1029500032F821309BB223F4E04323F0700343F4B8
:10296000404343F0800322F8213030E00023A3618C
:10297000ACE7012BC7D12A68B2F8503012FA83F3C2
:1029800003440022A3F80224BDE7012BD7D1B2F8FB
:10299000503012FA83F3227803EBC2030022A3F82B
:1029A0000624CCE716F4804F0DD0286830F821308B
:1029B0009BB223F4E04323F0700343F4404343F01D
:1029C000800320F8213094F82430012B12D02A689B
:1029D000217832F821309BB223F4E04323F0400306
:1029E00083F0300343F4004343F0800322F82130A6
:1029F000002070BD636913446361E3691344E361BC
:102A0000216A236999421BD3C91A21626278002A7C
:102A10003FD12968B1F8502011FA82F2217802EBF7
:102A2000C1023E2B18D9590913F01F0F00D10139EB
:102A30006FEAC1616FEA514189B2A2F802142AE03B
:102A400021B9002384F824301346DFE7002384F8FB
:102A5000243023620B46D9E78BB9B2F8021489B24D
:102A600021F4F84189B2A2F80214B2F802146FEA14
:102A700041416FEA514189B2A2F802140BE05908B2
:102A800013F0010F00D00131890289B2A2F80214BB
:102A900001E0012A06D09BB222896169286804F00E
:102AA00085FA94E72968B1F8502011FA82F221786A
:102AB00002EBC10299B2A2F80214ECE70268B2F884
:102AC00050300978C80010FA83F31344B3F8062491
:102AD000C2F30902A369934252D39B1AA361A3696B
:102AE000002B69D16378002B4DD12A68B2F85030A1
:102AF00012FA83F30344B3F8022492B222F4F842A8
:102B000092B2A3F80224B3F802246FEA42426FEAB9
:102B1000524292B2A3F802242A686378002B3ED175
:102B2000B2F8503012FA83F3227803EBC203B3F801
:102B3000062492B222F4F84292B2A3F80624B3F823
:102B400006246FEA42426FEA524292B2A3F8062488
:102B5000217828460EF078FD16F4804F7FF437AFC9
:102B60002A68217832F821309BB223F4E04323F025
:102B7000700343F4404343F0800322F8213026E7FA
:102B80000023A361ABE7012BC6D12A68B2F850300D
:102B900012FA83F303440022A3F80224BCE7012BBA
:102BA000D6D1B2F8503012FA83F3227803EBC20385
:102BB0000022A3F80624CBE716F4804F0DD1286835
:102BC00030F821309BB223F4E04323F0700343F448
:102BD000404343F0800320F8213094F82430012B47
:102BE0007FF4F5AE636913446361E3691344E36101
:102BF000216A236999421BD3C91A21622968627824
:102C0000002A3ED1B1F8502011FA82F2217802EB6D
:102C1000C1023E2B18D9590913F01F0F00D10139F9
:102C20006FEAC1616FEA514189B2A2F806142AE045
:102C300021B9002384F824301346DFE70023236200
:102C400084F824300B46D9E78BB9B2F8061489B260
:102C500021F4F84189B2A2F80614B2F806146FEA1A
:102C600041416FEA514189B2A2F806140BE05908BC
:102C700013F0010F00D00131890289B2A2F80614C5
:102C800001E0012A06D09BB262896169286804F0DC
:102C90008DF99CE6B1F8502011FA82F2217802EB0E
:102CA000C10299B2A2F80614EDE72DE9F0410546FC
:102CB000CAE003889BB223F4E14323F070036FEA78
:102CC00043436FEA53439BB203802968B1F8503005
:102CD00095F82820D20012FA83F30B44B3F802349B
:102CE000C3F309036B64EA6B1A44EA6300212846C4
:102CF0000EF0AAFC95F82430002B00F0A5802B6C78
:102D0000002B40F0A18095F824302A6843F080031E
:102D1000A2F84C30002385F8243095E0B0F850300C
:102D200095F86821D20012FA83F30344B3F806340D
:102D3000C3F30903C5F88431B5F86E2105F52C718C
:102D400004F0F6FC2A68138823F070031B051B0DA2
:102D500043F08003138028460EF062FC74E089B9CA
:102D6000B3F8062492B222F4F84292B2A3F80624F1
:102D7000B3F806246FEA42426FEA524292B2A3F8D5
:102D80000624BFE04A0811F0010F00D00132920280
:102D900092B2A3F80624B5E030F824309EB213F4C2
:102DA000004F40F0BE8016F0800F4DD0621C02EB49
:102DB000820105EBC101286830F824309BB223F46E
:102DC000E14323F070036FEA43436FEA53439BB23E
:102DD00020F82430CB78022B00F0A78104EB840389
:102DE00005EBC30300221A6493F8343023B316F0C2
:102DF000400F00F063814B78002B40F04C812A6833
:102E0000B2F8503012FA83F3621C02EB820215F81A
:102E1000322003EBC203B3F8022492B222F4F84248
:102E200092B2A3F80224B3F802246FEA42426FEA96
:102E3000524292B2A3F80224013404EB840415F840
:102E4000341028460EF000FC2868B0F8443013F423
:102E5000004F00F0AE81B0F84440A3B214F00F046C
:102E60009AD113F0100F3FF424AF03889AB213F4F1
:102E7000006F7FF453AF12F4004FE5D0038823F0C6
:102E800070031B051B0D43F0800303802868B0F816
:102E9000503095F86821D20012FA83F30344B3F856
:102EA0000634C3F30903C5F884318BB1D5F87C111E
:102EB00071B1B5F86E2104F03BFCD5F88421D5F84A
:102EC0007C311344C5F87C31002128460EF0B0FB5C
:102ED0002B681A8812F4006FB6D1B3F8502013FA99
:102EE00082F3D5F878113E297FF639AF4A0911F0FF
:102EF0001F0F00D1013A6FEAC2626FEA524292B2EA
:102F0000A3F806242A6813889BB223F4804323F095
:102F1000700383F4405343F4004343F08003138071
:102F200092E730F8243023F070031B051B0D43F0AB
:102F3000800320F8243004EB8401C90001F5B4714A
:102F400005EB010804EB840305EBC30393F874312C
:102F5000002B40D12868B0F8503004EB840205EB18
:102F6000C20292F86821D20012FA83F30344B3F844
:102F70000674C7F3090717BB04EB840305EBC3030F
:102F8000D3F884213A44C3F88421D3F87C213A440D
:102F9000C3F87C21D3F880313BB104EB840305EB0B
:102FA000C303D3F878319F4270D204EB840305EB5E
:102FB000C30393F8681128460EF03AFBF3E604EBDE
:102FC000840105EBC1013B46B1F86E21D1F87C11BB
:102FD00004F0AEFBD0E704EB840305EBC30393F8E6
:102FE0006B31022B33D0296804EB840205EBC2025B
:102FF00092F8680131F820309BB223F4E04323F0CB
:10300000700343F4004343F0C00321F820302868E4
:1030100092F8683130F8232012F4804F1ED0B0F8B7
:103020005020DB0013FA82F30344B3F80274C7F3B1
:103030000907002FA0D004EB840105EBC1013B463A
:10304000B1F87021D1F87C1104F072FB94E732469C
:1030500041462846FFF700FB07468DE7B0F85020B1
:10306000DB0013FA82F30344B3F80674C7F30907CD
:10307000002F81D004EB840105EBC1013B46B1F880
:103080007221D1F87C1104F053FB75E741462868A2
:1030900003F09EFF87E6012B7FF4CEAE2A68B2F8DC
:1030A000503012FA83F3621C02EB820215F83220D0
:1030B00003EBC2030022A3F80224BDE62A68631CC6
:1030C00003EB830305EBC3035B78E3B9B2F850303D
:1030D00012FA83F3621C02EB820215F8322003EB32
:1030E000C203B3F8062492B222F4F84292B2A3F8D3
:1030F0000624B3F806246FEA42426FEA524292B2C3
:10310000A3F8062498E6012B7FF496AEB2F850306F
:1031100012FA83F3621C02EB820215F8322003EBF1
:10312000C2030022A3F8062486E616F4807F3BD172
:103130002868B0F85030621C02EB820215F8326049
:10314000F20012FA83F30344B3F80234C3F3090321
:1031500004EB840205EBC202126C9A4210D904EB14
:10316000840705EBC707D21A3A6404EB840205EB27
:10317000C202126C5AB9314628460EF065FA63E66F
:1031800004EB840205EBC20200271764EDE704EBB1
:10319000840205EBC202D66B1E44D663546C2344F2
:1031A000536403F015FF4FE632462846FFF775FBE0
:1031B0004AE60020BDE8F08190F8A832012B0DD03E
:1031C00010B50446012380F8A83280F82410006866
:1031D00003F0D7FE002084F8A80210BD022070473B
:1031E00010B50446006803F0DDFE10F4004F23D153
:1031F00010F4806F24D110F4804F32D110F4005FAE
:1032000039D110F4805F40D110F4006F67D110F015
:10321000800F40F0818010F4007F40F0AD8010F40A
:10322000807F27D02268B2F844309BB223F48073A9
:103230009BB2A2F844301DE02046FFF736FD19E0AE
:103240002268B2F844309BB223F480639BB2A2F8A8
:10325000443020460EF009FA00212046FFF7ACFF6B
:1032600008E02268B2F844309BB223F480439BB25A
:10327000A2F8443010BD2268B2F844309BB223F467
:1032800000539BB2A2F84430F4E72268B2F8403011
:103290009BB223F004039BB2A2F840302268B2F83C
:1032A00040309BB223F008039BB2A2F8403094F860
:1032B000E032012B0CD020460EF0FAF92268B2F869
:1032C00044309BB223F480539BB2A2F84430D1E740
:1032D000002184F8E01220460EF0A2FAEBE7226803
:1032E000B2F840309BB243F00803A2F840302268A5
:1032F000B2F844309BB223F400639BB2A2F844308E
:103300002268B2F840309BB243F00403A2F8403088
:1033100020460EF0BDF9ADE72268B2F844309BB20A
:1033200023F080039BB2A2F8443094F8E032FBB95A
:103330002268B2F840309BB243F00403A2F8403058
:103340002268B2F840309BB243F00803A2F8403044
:10335000012184F8E0122368B3F85430C3F38D03DD
:1033600003F03C03C4F8E43220460EF059FA81E73A
:1033700020460EF08DF97DE72268B2F844309BB20A
:1033800023F400739BB2A2F8443020460EF067F994
:1033900070E710B504468C4611F0800F2AD101F079
:1033A000070000EB8001C90001F5B47E04EB0E01BB
:1033B00000EB800004EBC0004FF0000E80F869E1E4
:1033C0000CF0070C81F800C00A61CB704A780AB192
:1033D000A1F80EC0022B19D094F8A832012B18D0F6
:1033E000012384F8A832206803F09EFA002084F8B4
:1033F000A80210BD01F00700013000EB800104EBD2
:10340000C1014FF0010E81F801E0D9E700230B71F3
:10341000E2E70220EDE710B504460B4611F0800FFD
:103420001FD101F0070202EB8201C90001F5B4715E
:10343000014402EB820200EBC202002082F8690123
:1034400003F007030B7094F8A832012B13D001236B
:1034500084F8A832206803F033FC002084F8A80226
:1034600010BD01F00702013202EB820100EBC10145
:1034700001204870E4E70220F2E710B501F00704EC
:1034800004EB8401C90001F5B471014404EB840C20
:1034900000EBCC0CCCF87C21CCF880310023CCF8AC
:1034A00084318CF869318CF8684124B9006803F0E4
:1034B0008FFD002010BD006803F08AFDF9E701F0E0
:1034C000070101EB810100EBC100D0F884017047D6
:1034D00010B501F0070404F1010C0CEB8C0100EBBA
:1034E000C10104EB840E00EBCE0ECEF83C20CEF8EA
:1034F000403001228EF84C20CEF848300023CEF820
:1035000044304A700CEB8C0C00F83C4024B9006845
:1035100003F05EFD002010BD006803F059FDF9E7DF
:103520000B4601F0070241688A422AD810B50446CA
:1035300013F0800F1DD103EB8301C90001F5B471B5
:10354000014403EB830300EBC303002083F869010C
:1035500001238B700A7094F8A832012B13D0012339
:1035600084F8A832206803F096FC002084F8A802B2
:1035700010BD531C03EB830100EBC1010120487017
:10358000E6E7012070470220F2E70B4601F00F0149
:103590004268914230D810B5044613F0800F21D113
:1035A00003F0070202EB8201C90001F5B471014486
:1035B00002EB820200EBC202002082F869010022C5
:1035C0008A7003F007030B7094F8A832012B15D012
:1035D000012384F8A832206803F082FC002084F8DC
:1035E000A80210BD03F00702013202EB820100EBDA
:1035F000C10101204870E2E7012070470220F0E796
:1036000011F0800F0BD001F00701013101EB8101B6
:1036100000EBC10052B90273C3800020704701EB78
:103620008101C90001F5B4710844F3E70122027376
:1036300003811B0C4381F0E7034602680121C0F8B7
:10364000E812002083F8E002B2F854309BB20B433A
:10365000A2F85430B2F854309BB243F00203A2F8FF
:103660005430704710B5044628B1B0F5007F02D041
:10367000B0F5806F11D1002C3BD1414B1B6803F496
:10368000C063B3F5806F0DD03D4AD2F8803023F48B
:103690008073C2F88030002010BD9D213948FDF7AD
:1036A0000BFBE8E7364AD2F8803023F48073C2F887
:1036B0008030136823F4C06343F400731360324B0B
:1036C0001B68322202FB03F3304AA2FB03239B0C4C
:1036D000013300E0013B2A4A526912F4806F01D0A5
:1036E000002BF7D1264B5B6913F4806F44D1002087
:1036F000D2E7B4F5007F08D0214A136823F4C063F1
:1037000043F4806313600020C6E71D4B1B6803F47D
:10371000C063B3F5806F08D0194AD2F8803043F403
:103720008073C2F880300020B6E7154AD2F88030A6
:1037300043F48073C2F88030136823F4C06343F409
:1037400000731360104B1B68322202FB03F30F4A15
:10375000A2FB03239B0C013300E0013B084A5269A2
:1037600012F4806F01D0002BF7D1054B5B6913F485
:10377000806F03D100208FE703208DE703208BE7C4
:1037800000700040902F01080000002083DE1B43E2
:10379000124BDA6802F00302DB68C3F30313013350
:1037A000032A11D00E48B0FBF3F00C4BDB68C3F3D7
:1037B000062303FB00F0094BDB68C3F341630133CD
:1037C0005B00B0FBF3F070470548B0FBF3F0034B30
:1037D000DB68C3F3062303FB00F0ECE700100240B4
:1037E0000024F400002800F0018370B582B0044684
:1037F000036813B113F02F0F38D0236813F0010FB3
:103800004BD063682BB1B3F5803F02D0B3F5A02F46
:1038100032D18B4A936803F00C03D26802F00302A2
:103820000C2B2FD0082B2FD06368B3F5803F63D0CB
:10383000B3F5A02F66D0824B1A6822F480321A604A
:103840001A6822F480221A606368002B67D0FDF7A3
:1038500003FD05467A4B1B6813F4003F1DD1FDF7AD
:10386000FBFC401B6428F5D90320C8E240F2451157
:103870007448FDF721FAC0E740F24B117148FDF79B
:103880001BFAC6E7032ACDD16D4B1B6813F4003F2A
:1038900003D06368002B00F0AB82236813F0020FA3
:1038A00072D0E36813B1B3F5807F47D123697F2BD2
:1038B0004AD8634A936803F00C03D26802F003020B
:1038C0000C2B47D0042B47D0E368002B00F08680F8
:1038D0005B4A136843F480731360FDF7BDFC054633
:1038E000574B1B6813F4806F6FD1FDF7B5FC401B7D
:1038F0000228F5D9032082E2514A136843F4803349
:103900001360A1E703F18043A3F53C331A6842F446
:1039100080221A601A6842F480321A6094E7FDF738
:103920009BFC0546464B1B6813F4003FB5D0FDF7E2
:1039300093FC401B6428F5D9032060E24FF4C0716A
:103940004048FDF7B9F9B1E740F281113D48FDF774
:10395000B3F9AEE7022AB5D1394B1B6813F4806F77
:1039600003D0E368002B00F04582354A536823F00A
:10397000FE43216943EA01635360334B1868FDF746
:1039800051FA002840F03882236813F0080F5DD008
:103990006369012B36D86369002B39D0284AD2F8E5
:1039A000943043F00103C2F89430FDF755FC05460E
:1039B000234BD3F8943013F0020F47D1FDF74CFCA2
:1039C000401B0228F4D9032019E21D4A536823F052
:1039D000FE43216943EA01635360D5E7184A13683F
:1039E00023F480731360FDF737FC0546144B1B6806
:1039F00013F4806FC8D0FDF72FFC401B0228F5D9C7
:103A00000320FCE14FF4E4710E48FDF755F9C2E7DD
:103A10000B4AD2F8943023F00103C2F89430FDF73A
:103A20001BFC0546064BD3F8943013F0020F0DD063
:103A3000FDF712FC401B0228F4D90320DFE100BF90
:103A400000100240CC2F010808000020236813F06A
:103A5000040F00F08680A368012B01D9052B3BD110
:103A60009E4B9B6D13F0805F3CD19C4B9A6D42F056
:103A700080529A659B6D03F080530193019B012551
:103A8000974B1B6813F4807F2ED0A368012B3FD087
:103A9000052B45D0914BD3F8902022F00102C3F8BA
:103AA0009020D3F8902022F00402C3F89020A3685D
:103AB000002B43D0FDF7D0FB0646884BD3F890305F
:103AC00013F0020F4CD1FDF7C7FB801B41F2883386
:103AD0009842F2D9032092E14FF4FA718148FDF740
:103AE000EBF8BDE70025CBE77D4A136843F480730C
:103AF0001360FDF7B1FB0646794B1B6813F4807F1A
:103B0000C3D1FDF7A9FB801B0228F5D9032076E17C
:103B1000724AD2F8903043F00103C2F89030C6E701
:103B20006E4BD3F8902042F00402C3F89020D3F8F3
:103B3000902042F00102C3F89020B8E7FDF78CFB1B
:103B40000646664BD3F8903013F0020F08D0FDF70D
:103B500083FB801B41F288339842F2D903204EE167
:103B6000FDB9236813F0200F3ED0A369012B1ED8A6
:103B7000A36913B3594AD2F8983043F00103C2F84D
:103B80009830FDF769FB0546544BD3F8983013F095
:103B9000020F29D1FDF760FB401B0228F4D9032056
:103BA0002DE14E4A936D23F080539365D9E740F29F
:103BB0003B214C48FDF780F8DAE7484AD2F89830C4
:103BC00023F00103C2F89830FDF746FB0546434B4E
:103BD000D3F8983013F0020F06D0FDF73DFB401BE1
:103BE0000228F4D903200AE1E369022B4BD8E369E8
:103BF000002B00F00381394A926802F00C020C2A73
:103C000000F0C680022B40F0A380236A1BB1022B78
:103C100001D0032B3DD1636A013B0F2B3FD8A36A30
:103C2000083B772B41D8E36A023B1D2B43D8236B1B
:103C3000022B08D0082B44D84FF4A87222FA03F3C1
:103C400013F0010F3DD0636B022B08D0082B3ED838
:103C50004FF4A87222FA03F313F0010F37D01F4A72
:103C6000136823F080731360FDF7F6FA05461B4BCB
:103C70001B6813F0007F37D0FDF7EEFA401B0228D7
:103C8000F5D90320BBE04FF419711648FDF714F87D
:103C9000ADE740F26E211348FDF70EF8BBE740F2A6
:103CA0006F211048FDF708F8B9E74FF41C710D4873
:103CB000FDF702F8B7E740F271210A48FCF7FCFF74
:103CC000B5E740F272210748FCF7F6FFBBE740F288
:103CD00073210448FCF7F0FFC1E700BF0010024069
:103CE00000700040CC2F01084D4AD3684D4919405F
:103CF000236A606A013843EA0013A06A43EA00239A
:103D0000206B4008013843EA4053606B400801389B
:103D100043EA4063E06A43EAC0631943D160136831
:103D200043F080731360D36843F08073D360FDF772
:103D300093FA04463A4B1B6813F0007F06D1FDF757
:103D40008BFA001B0228F5D9032058E0002056E02A
:103D5000334B1A6822F080721A60DA6822F003028C
:103D6000DA60DA6822F0887222F48032DA60FDF7D5
:103D700073FA04462A4B1B6813F0007F06D0FDF748
:103D80006BFA001B0228F5D9032038E0002036E04A
:103D9000012B36D0224BDB6803F00301226A9142EB
:103DA00031D103F0F002616A0139B2EB011F2CD16D
:103DB00003F4FE42A16AB2EB012F28D103F078424E
:103DC000E16AB2EBC16F24D103F4C001226B520847
:103DD000013AB1EB425F1ED103F0C063626B52083F
:103DE000013AB3EB426F18D1002008E00120704780
:103DF000012004E0012002E0012000E0002002B0E8
:103E000070BD0120FBE70120F9E70120F7E7012061
:103E1000F5E70120F3E70120F1E70120EFE700BF1C
:103E2000001002400C809F011E4B9B6803F00C03A6
:103E3000042B33D01B4B9B6803F00C03082B2FD0B3
:103E4000184B9B6803F00C030C2B01D0002070472B
:103E5000144BDA6802F00302DB68C3F30313013387
:103E6000032A11D01048B0FBF3F00E4BDB68C3F30C
:103E7000062303FB00F00B4BDB68C3F34163013304
:103E80005B00B0FBF3F070470748B0FBF3F0054B65
:103E9000DB68C3F3062303FB00F0ECE7024870473E
:103EA00001487047001002400024F400002800F090
:103EB0005581F8B50D460446036813F00F0F02D084
:103EC00033F00F0304D04FF443719A48FCF7F4FE2B
:103ED0000F2D4CD8984B1B6803F00F03AB420BD24D
:103EE000954A136823F00F032B431360136803F004
:103EF0000F03AB4240F03481266816F001066FD004
:103F00006368013B022B38D86368032B3BD0022B3C
:103F100059D08A4B1B6813F4806F00F02381FFF7A0
:103F200083FF874B984259D9844A936823F0F00362
:103F300043F0800393608026804A936823F0030354
:103F400061680B439360FDF787F907467B4B9B68DD
:103F500003F00C036268B3EB820F41D0FDF77CF9EC
:103F6000C01B41F288339842F0D90320AFE040F201
:103F70000D317048FCF7A0FEACE74FF449716D4875
:103F8000FCF79AFEC0E76D4B1B6813F0007F01D170
:103F900001209CE0FFF7FCFB694B98421AD9674B64
:103FA0009B6813F0F00F05D0266816F00206C3D008
:103FB000A3688BB9614A936823F0F00343F0800350
:103FC00093608026B8E75D4B1B6813F4003FA6D1D1
:103FD00001207CE00026AFE70026ADE70026ABE736
:103FE000236813F0020F7FD013F0040F04D0534A5C
:103FF000936843F4E0639360236813F0080F06D0DE
:104000004E4A936823F47C5343F4E0639360A368BF
:1040100063B1C02B0AD05BD8A02B07D002D9B02B3C
:1040200004D05BE0802B01D0902B57D1434A93689A
:1040300023F0F003A1680B4393603F4B1B6803F030
:104040000F03AB4258D8236813F0040F14D0E36871
:104050005BB1B3F5806F08D0B3F5A06F05D0B3F5B1
:10406000C06F02D0B3F5E06F5ED1344A936823F499
:10407000E063E1680B439360236813F0080F15D0E9
:1040800023695BB1B3F5806F08D0B3F5A06F05D09D
:10409000B3F5C06F02D0B3F5E06F59D1274A9368EA
:1040A00023F46053216943EAC1039360FFF7BCFE28
:1040B000224B9B68C3F30313224AD35C03F01F0314
:1040C000D840214B1860214B1868FCF7ABFEF8BDB7
:1040D000E02BABD0F02BA9D0D02BA7D040F27B3176
:1040E0001448FCF7E9FDA1E7802EA6D1134A936896
:1040F00023F0F0039360A0E70F4A136823F00F0347
:104100002B431360FDF7A8F806460B4B1B6803F022
:104110000F03AB4297D0FDF79FF8801B41F2883325
:104120009842F2D90320D2E740F29D310148FCF7D2
:10413000C3FD9AE7CC2F0108002002400010024086
:1041400000B4C404442E0108000000200800002030
:104150004FF469710448FCF7AFFD9FE701207047F9
:104160000120B4E70120B2E7CC2F0108014B186809
:10417000704700BF0000002008B5FFF7F7FF054BB0
:104180009B68C3F30223044AD35C03F01F03D840A7
:1041900008BD00BF00100240542E010808B5FFF70B
:1041A000E5FF054B9B68C3F3C223044AD35C03F0CD
:1041B0001F03D84008BD00BF00100240542E010864
:1041C00038B50D460446D0B1FDB10F232360124B24
:1041D0009A6802F0030262609A6802F0F002A2603C
:1041E0009A6802F4E062E2609B68DB0803F4E06333
:1041F00023610A4B1B6803F00F032B6038BD40F2AC
:10420000E4410748FCF758FDDEE740F2E541044889
:10421000FCF752FDD9E700BF001002400020024029
:10422000CC2F0108F0B583B004460368C3F3130331
:10423000002B33D0236813F4002F00F08580236D0A
:1042400043B1B3F5807F05D0B3F5007F02D0B3F55D
:10425000407F28D1394B9B6D13F0805F28D1374BBD
:104260009A6D42F080529A659B6D03F080530193E2
:10427000019B0126324A136843F480731360FCF7F4
:10428000EBFF05462E4B1B6813F4807F12D1FCF721
:10429000E3FF401B0228F5D903250CE083212948C0
:1042A000FCF70AFDC6E78B212648FCF705FDD1E7A0
:1042B0000026DFE7002545BB204BD3F8903013F4F0
:1042C000407315D0226D9A4212D01C4AD2F8903019
:1042D00023F44073D2F8901041F48031C2F890106A
:1042E000D2F8901021F48031C2F89010C2F89030CA
:1042F00013F0010F10D145B9104AD2F8903023F4D1
:104300004073216D0B43C2F89030F6B10B4A936DA8
:1043100023F08053936518E0FCF79EFF0746074B98
:10432000D3F8903013F0020FE5D1FCF795FFC01BD6
:1043300041F288339842F2D90325DCE700100240AD
:1043400000700040043001080025236813F0010FBD
:1043500010D06368012B04D9032B02D0022B40F04C
:10436000D181A44AD2F8883023F0030361680B435B
:10437000C2F88830236813F0020F18D0A3686BB11D
:10438000043B082B06D840F2111222FA03F313F073
:10439000010F03D1EA219848FCF78EFC954AD2F828
:1043A000883023F00C03A1680B43C2F888302368DF
:1043B00013F0040F11D0E36833B1102B04D0302B6D
:1043C00002D0202B40F0A3818A4AD2F8883023F013
:1043D0003003E1680B43C2F88830236813F0080FFC
:1043E00011D0236933B1402B04D0C02B02D0802BD5
:1043F00040F092817F4AD2F8883023F0C0032169CF
:104400000B43C2F88830236813F0100F14D063698F
:104410004BB1B3F5807F06D0B3F5407F03D0B3F541
:10442000007F40F07E81734AD2F8883023F44073D5
:1044300061690B43C2F88830236813F0200F14D051
:10444000A3694BB1B3F5806F06D0B3F5406F03D0CD
:10445000B3F5006F40F06B81664AD2F8883023F4E0
:104460004063A1690B43C2F88830236813F0400F02
:1044700011D0E36933B1B3F5805F03D0B3F5005FCA
:1044800040F05B815B4AD2F8883023F44053E16905
:104490000B43C2F88830236813F0800F11D0236AD1
:1044A00033B1B3F5804F03D0B3F5004F40F04B81EB
:1044B000504AD2F8883023F44043216A0B43C2F8B3
:1044C0008830236813F4807F11D0636A33B1B3F569
:1044D000803F03D0B3F5003F40F03B81454AD2F81E
:1044E000883023F44033616A0B43C2F88830236874
:1044F00013F4003F0CD0A36A022B00F230813D4A36
:10450000D2F89C3023F00303A16A0B43C2F89C301D
:10451000236813F4007F14D0E36A4BB1B3F5802F06
:1045200006D0B3F5002F03D0B3F5402F40F01D8126
:10453000304AD2F8883023F44023E16A0B43C2F8B2
:104540008830236813F4806F19D0236B4BB1B3F517
:10455000801F06D0B3F5001F03D0B3F5401F40F015
:104560000A81244AD2F8883023F44013216B0B438C
:10457000C2F88830236BB3F5801F00F002812368F6
:1045800013F4006F19D0636B4BB1B3F5800F06D0F5
:10459000B3F5000F03D0B3F5400F40F0F780154A94
:1045A000D2F8883023F44003616B0B43C2F88830A3
:1045B000636BB3F5800F00F0EF80236813F4805F26
:1045C0001CD0A36B33B1B3F1807F03D0B3F1007F74
:1045D00040F0E780074AD2F8883023F04073A16B9F
:1045E0000B43C2F88830A36BB3F1807F00F0DF800B
:1045F00004E000BF0010024004300108236813F4F7
:10460000005F13D0E36B1BB1B3F1006F40F0D480B7
:10461000854AD2F8883023F04063E16B0B43C2F83F
:104620008830E36BB3F1006F00F0CC80236813F4A3
:10463000804F13D0236C1BB1B3F1006F40F0C780E3
:10464000794AD2F8883023F04063216C0B43C2F8DA
:104650008830236CB3F1006F00F0BF80236813F43F
:10466000004F16D0636C33B1B3F1805F03D0B3F168
:10467000005F40F0B7806C4AD2F8883023F0405396
:10468000616C0B43C2F88830636CB3F1805F00F05B
:10469000AF80236813F4803F16D0A36C33B1B3F11D
:1046A000804F03D0B3F1004F40F0A7805E4AD2F8AC
:1046B000883023F04043A16C0B43C2F88830A36CD0
:1046C000B3F1804F00F09F80236813F4802F16D041
:1046D000E36CB3F5801F04D01BB1B3F5001F40F0AD
:1046E0009780514AD2F89C3023F44013E16C0B437D
:1046F000C2F89C30E36CB3F5001F00F08F802846B1
:1047000003B0F0BDE0214948FCF7D6FA29E6F421D0
:104710004648FCF7D1FA57E6FF214448FCF7CCFAAB
:1047200068E64FF486714148FCF7C6FA7BE64FF421
:104730008C713E48FCF7C0FA8EE64FF491713B480D
:10474000FCF7BAFA9EE64FF496713848FCF7B4FAD3
:10475000AEE64FF49B713548FCF7AEFABEE64FF477
:10476000A1713248FCF7A8FAC9E64FF4A7712F48A7
:10477000FCF7A2FADCE64FF4AC712C48FCF79CFA8B
:10478000EFE6D36843F48013D360F8E64FF4B471D6
:104790002648FCF791FA02E7D36843F48013D3600C
:1047A0000BE740F279112148FCF786FA12E7D3684B
:1047B00043F48013D36021E740F28B111B48FCF7D0
:1047C0007BFA25E7D36843F48013D3602EE74FF4D8
:1047D000CD711648FCF770FA32E7D36843F48013C2
:1047E000D3603BE74FF4D4711048FCF765FA42E719
:1047F000D36843F48033D3604BE740F2B9110B48E0
:10480000FCF75AFA52E7D36843F48033D3605BE78E
:104810004FF4E6710548FCF74FFA62E7D36843F4BA
:104820008013D3606BE700BF001002400430010822
:104830002DE9F04782B00546884617461E46FCF72C
:104840000BFD0A9B1B1A03EB0609FCF705FD8246CC
:104850002A4B1B68C3F3CB3309FB03F301932B688B
:104860009C6838EA04040CBF01230023BB4240D0FB
:10487000B6F1FF3FF3D0FCF7EFFCA0EB0A00484590
:104880000AD2B9F1000F07D0019A02B14A46019B42
:10489000013B01939146E2E72A68536823F0E00365
:1048A00053606B68B3F5827F0BD0AB6AB3F5005FE2
:1048B00014D0012385F85D30002385F85C30032097
:1048C00018E0AB68B3F5004F02D0B3F5806FECD1C0
:1048D0002A68136823F040031360E6E72A68136828
:1048E00023F4005313602A68136843F400531360E1
:1048F000DFE7002002B0BDE8F08700BF0000002025
:104900002DE9F04782B006460C4615461F460023A7
:104910008DF80330FCF7A0FC0A9B1B1A03EB070879
:10492000FCF79AFC8146D6F800A0314B1B6803EBDC
:104930008303C3EBC3031B0D08FB03F3019302E0E6
:10494000B7F1FF3F12D133689B6803EA040CAC4512
:104950004AD0B4F5C06FF3D1002DF1D19AF80C30E4
:10496000DBB28DF803309DF80330E9E7FCF774FC07
:10497000A0EB090040450AD2B8F1000F07D0019A18
:1049800002B14246019B013B01939046DBE732684E
:10499000536823F0E00353607368B3F5827F0BD054
:1049A000B36AB3F5005F14D0012386F85D300023AD
:1049B00086F85C30032018E0B368B3F5004F02D0EE
:1049C000B3F5806FECD13268136823F040031360B5
:1049D000E6E73268136823F4005313603268136803
:1049E00043F400531360DFE7002002B0BDE8F08716
:1049F0000000002070B582B004460D4616460092B5
:104A00000B4600224FF4C051FFF77AFFB0B9009671
:104A10002B46002280212046FFF70AFFA8B9009606
:104A20002B4600224FF4C0612046FFF769FF50B1CA
:104A3000236E43F020032366032004E0236E43F03B
:104A400020032366032002B070BD236E43F02003D1
:104A500023660320F7E770B582B004460D4616467C
:104A60004368B3F5827F0DD000962B46002280214B
:104A70002046FFF7DDFE90B96368B3F5827F14D05E
:104A800002B070BD8368B3F5004F02D0B3F5806FFC
:104A9000EAD12268136823F040031360E4E7236E31
:104AA00043F0200323660320EAE7A368B3F5004F31
:104AB00002D0B3F5806FE3D100962B4600224FF46D
:104AC000C0612046FFF71CFF0028D9D0236E43F0B9
:104AD000200323660320D3E7002800F0708110B57F
:104AE00004460368714A934210D0A2F5784293427B
:104AF0000CD002F58062934208D002F580329342D6
:104B000004D040F245116A48FCF7D6F8636813B147
:104B1000B3F5827F6AD1A3682BB1B3F5806F02D061
:104B2000B3F5004F68D1E368B3F5706F23D0B3F5E8
:104B3000606F20D0B3F5506F1DD0B3F5406F1AD021
:104B4000B3F5306F17D0B3F5206F14D0B3F5106FF5
:104B500011D0B3F5006F0ED0B3F5E06F0BD0B3F505
:104B6000C06F08D0B3F5A06F05D0B3F5806F02D049
:104B7000B3F5407F46D1A369B3F5007F03D013B1ED
:104B8000B3F5802F44D1636B082B01D0002B45D1A6
:104B9000E36993B1182B47D9382B09D8202B07D3B9
:104BA000203B4FF0013222FA03F313F0010F04D13E
:104BB00040F24B113E48FCF77FF8236A0BB1802B83
:104BC0003BD1636A0BB1102B3DD1636A002B73D1CB
:104BD00023690BB1022B3CD16369012B3FD8636879
:104BE000B3F5827F41D00023E3617DE04FF4A371F0
:104BF0002F48FCF761F88EE740F247112C48FCF78C
:104C00005BF890E74FF4A4712948FCF755F8B2E738
:104C100040F249112648FCF74FF8B4E74FF4A5716C
:104C20002348FCF749F8B3E7082BC1D3214A22FAFD
:104C300003F313F0010FBBD0BFE74FF4A6711C487C
:104C4000FCF73AF8BDE740F24D111948FCF734F88B
:104C5000BBE74FF4A8711648FCF72EF8BCE740F20A
:104C600051111348FCF728F8B9E7E369002B3BD052
:104C7000182B11D9382B09D8202B07D3203B4FF004
:104C8000013222FA03F313F0010F2DD140F2551136
:104C90000748FCF711F827E0082BF7D3054A22FA5A
:104CA00003F313F0010FF1D01EE000BF003001400C
:104CB0004030010800010101E36993B1182B6CD960
:104CC000382B09D8202B07D3203B4FF0013222FA92
:104CD00003F313F0010F04D140F25F113948FBF7E1
:104CE000EBFF0023236163610023A36294F85D302E
:104CF000002B5BD0022384F85D302268136823F018
:104D000040031360E368B3F5E06F55D90022B3F5B3
:104D1000706F04D0B3F5E06F01D00023A362636825
:104D200003F48273A16801F404410B43216901F08B
:104D300002010B43616901F001010B43A16901F418
:104D400000710B43E16901F038010B43216A01F066
:104D500080010B43A16A01F4005120680B430360FA
:104D6000638B03F00403616A01F010010B43616B74
:104D700001F008010B43E16801F470610B43216805
:104D80001A434A602268D36923F40063D361002088
:104D90002066012384F85D3010BD082B9CD30A4A9D
:104DA00022FA03F313F0010F96D09AE784F85C30EF
:104DB0002046FBF7A9FF9DE74FF48052A7E70120AB
:104DC000704700BF4030010800010101F8B50446FA
:104DD0000E461746436D002B65D0A36813B1B3F59B
:104DE000004F66D194F85C30012B00F09A800123CB
:104DF00084F85C3094F85D50EDB29D4240F08B80B9
:104E0000002E00F08980002F00F08680032384F8B4
:104E10005D3000232366A663A787E78723642365A5
:104E2000E364A4F84430A4F84630A368B3F5004F17
:104E300045D0636D3C4A1A63636D3C4ADA62636D28
:104E40003B4A5A63636D00229A632268536823F4D5
:104E500080435360E368B3F5E06F04D8636D9B69EA
:104E6000B3F5806F36D02268E38F9BB20C32A16B12
:104E7000606DFCF7CFFB0146002844D123681A6817
:104E800012F0400F03D11A6842F040021A60226803
:104E9000536843F0200353602268536843F00203D1
:104EA00053600D4638E040F245712248FBF704FF9D
:104EB00093E74FF4E9611F48FBF7FEFE92E7226893
:104EC000136823F0400313602268136843F480439F
:104ED0001360AEE7E38F13F0010F09D12268536826
:104EE00023F480435360E38FC3F34E03E387BAE7B1
:104EF0002268536843F480435360E38FC3F34E0347
:104F00000133E387AFE7236E43F0100323660123E9
:104F100084F85D3000E00225002384F85C302846E8
:104F2000F8BD0225FBE700BF91510008D7510008EA
:104F3000B551000840300108F8B504460E46174642
:104F40001D46836D002B6DD0636D002B70D0A36860
:104F5000002B73D194F85C30012B00F00981012300
:104F600084F85C3094F85D30DBB26268012B0AD0C3
:104F7000B2F5827F40F0ED80A268002A40F0EE801A
:104F8000042B40F0ED80002E00F0EC80002F00F0AC
:104F9000EB80002D00F0EA8094F85D30DBB2042B4A
:104FA00002D0052384F85D3000232366A663A5871D
:104FB000E5872764A4F84450A4F84650E3642365C9
:104FC0002268536823F4C0435360E368B3F5E06F8D
:104FD0003AD92268536823F48053536094F85D30C3
:104FE000DBB2042B7BD0A36D624A1A63A36D624AC5
:104FF000DA62A36D614A5A63A36D00229A63216845
:10500000B4F846309BB2226C0C31A06DFCF702FB69
:1050100000286BD0236E43F010032366012084F830
:105020005D0097E040F656015548FBF745FE8BE7DB
:1050300040F657015248FBF73FFE88E740F65A0119
:105040004F48FBF739FE85E72268536843F48053E5
:105050005360636D9B69B3F5806F1AD0A36D9B6934
:10506000B3F5806FBAD12268536823F4805353603C
:10507000B4F8463013F0010F24D12268536823F4AA
:1050800000535360B4F84630C3F34E03A4F84630DF
:10509000A4E7A38F13F0010F09D12268536823F40A
:1050A00080435360E38FC3F34E03E387D6E7226860
:1050B000536843F480435360E38FC3F34E030133DB
:1050C000E387CBE72268536843F400535360B4F896
:1050D0004630C3F34E030133A4F846307EE7A36D98
:1050E000284A1A63A36D284ADA6282E72268536865
:1050F00043F001035360626D00231363626DD3625A
:10510000626D5363626D93632268E38F9BB20C32CE
:10511000A16B606DFCF77EFA98B923681A6812F0EB
:10512000400F03D11A6842F040021A6022685368A7
:1051300043F0200353602268536843F00203536036
:1051400008E0236E43F010032366012084F85D001D
:1051500000E00220002384F85C30F8BD0220F9E76B
:105160000220F7E70120F5E70120F3E70120F1E74E
:105170000220F2E7A9510008B7520008B551000813
:10518000403001089D5100084752000870477047A1
:1051900008B5806AFFF7FBFF08BD704708B5806A55
:1051A000FFF7FBFF08BD704708B5806AFFF7FBFFFC
:1051B00008BD704708B5806A0268536823F003038E
:1051C0005360036E43F010030366012380F85D30E3
:1051D000FFF7EFFF08BD30B583B00546846AFCF7E2
:1051E0003BF82B681B6813F0200F23D1024621687F
:1051F0004B6823F020034B6021684B6823F00203C7
:105200004B6064212046FFF7F5FB18B1236E43F095
:1052100020032366A36833B901932368DA680192F7
:105220009B680193019B0023E387012384F85D3091
:10523000236E23B9204609F0BDFD03B030BD2046E2
:10524000FFF7B7FFF9E738B50546846AFCF704F8BD
:105250002B681B6813F0200F1FD1024621684B6892
:1052600023F020034B60A3681BB96368B3F5827F0A
:1052700017D021684B6823F001034B60642120465E
:10528000FFF7E9FB08B1202323660023A4F846308A
:10529000012384F85D30236E4BB92046FFF776FF7B
:1052A00038BD21684B6823F003034B60E6E72046D6
:1052B000FFF77FFFF4E738B50546846AFBF7CCFFBC
:1052C0002B681B6813F0200F1CD1024621684B6825
:1052D00023F020034B6064212046FFF78BFB18B1BD
:1052E000236E43F0200323662268536823F00303F0
:1052F00053600023E387A4F84630012384F85D302F
:10530000236E1BB9204609F05DFD38BD2046FFF72E
:1053100050FFFAE77047000010B5044603683C4AA6
:1053200093422FD0B3F1804F2CD0A2F59432934208
:1053300028D002F58062934224D002F58062934225
:1053400020D002F5806293421CD002F58062934225
:1053500018D002F59032934214D002F54062934285
:1053600010D002F5806293420CD002F58062934225
:1053700008D002F50062934204D04FF4EF71254843
:10538000FBF79AFC94F83D30DBB2012B3AD10223B3
:1053900084F83D302268D36843F00103D36023686A
:1053A0001B4A934220D0B3F1804F1DD0A2F5943216
:1053B000934219D002F58062934215D002F58062C3
:1053C000934211D002F5943293420DD002F540621F
:1053D000934209D002F58052934205D01A6842F0F8
:1053E00001021A6000200EE099680B4A0A40062A62
:1053F0000AD0B2F5803F09D01A6842F001021A6063
:10540000002000E0012010BD0020FCE70020FAE7AA
:10541000002C0140783001080700010070477047F8
:105420007047704710B5044603681A6912F0020FFE
:1054300012D0DA6812F0020F0ED06FF002021A6179
:105440000123037703689B6913F0030F00F09F802B
:10545000FFF7E5FF0023237723681A6912F0040F92
:1054600013D0DA6812F0040F0FD06FF004021A6143
:105470000223237723689B6913F4407F00F08D801B
:105480002046FFF7CCFF0023237723681A6912F028
:10549000080F12D0DA6812F0080F0ED06FF0080271
:1054A0001A61042323772368DB6913F0030F7BD091
:1054B0002046FFF7B4FF0023237723681A6912F010
:1054C000100F12D0DA6812F0100F0ED06FF0100229
:1054D0001A61082323772368DB6913F4407F6AD0BD
:1054E0002046FFF79CFF0023237723681A6912F0F8
:1054F000010F03D0DA6812F0010F63D123681A6933
:1055000012F0800F03D0DA6812F0800F61D12368A7
:105510001A6912F4807F03D0DA6812F0800F5FD12D
:1055200023681A6912F0400F03D0DA6812F0400FB6
:105530005DD123681A6912F0200F03D0DA6812F0E7
:10554000200F5BD123681A6912F4801F03D0DA6838
:1055500012F4801F59D123681A6912F4001F03D076
:10556000DA6812F4001F57D123681A6912F4800F09
:1055700003D0DA6812F4800F55D123681A6912F447
:10558000000F03D0DA6812F4000F53D110BDFFF7FB
:1055900045FF2046FFF744FF5CE72046FFF73EFF4C
:1055A0002046FFF73DFF6EE72046FFF737FF204616
:1055B000FFF736FF7FE72046FFF730FF2046FFF773
:1055C0002FFF90E76FF001021A612046FBF70CFBFA
:1055D00094E76FF080021A61204600F038F996E7F0
:1055E0006FF480721A61204600F032F998E76FF08C
:1055F00040021A612046FFF714FF9AE76FF020027D
:105600001A61204600F022F99CE76FF480121A61BB
:10561000204600F01EF99EE76FF400121A61204642
:1056200000F018F9A0E76FF480021A61204600F03C
:1056300012F9A2E76FF400021A61204600F00CF99B
:10564000A4E700000368364A904216D0B0F1804FBC
:1056500013D0A2F5943290420FD002F580629042AE
:105660000BD002F58062904207D002F5943290424E
:1056700003D002F5E052904203D123F070034A6850
:105680001343274A904222D0B0F1804F1FD0A2F599
:10569000943290421BD002F58062904217D002F5FE
:1056A0008062904213D002F5943290420FD002F5FE
:1056B000406290420BD002F58062904207D002F522
:1056C0008062904203D002F50062904203D123F43D
:1056D0004073CA68134323F080034A69134303608D
:1056E0008B68C3620B6883620D4B984213D003F53D
:1056F000006398420FD003F5406398420BD003F546
:105700008063984207D003F58063984203D003F585
:105710000063984201D10B69036301234361704721
:10572000002C0140002800F08A8010B50446036870
:10573000444A93422FD0B3F1804F2CD0A2F594323B
:10574000934228D002F58062934224D002F5806211
:10575000934220D002F5806293421CD002F5806211
:10576000934218D002F59032934214D002F5406271
:10577000934210D002F5806293420CD002F5806211
:10578000934208D002F50062934204D04FF4917125
:105790002D48FBF791FAA3683BB1102B05D0202BC5
:1057A00003D0402B01D0602B31D123692BB1B3F54D
:1057B000807F02D0B3F5007F2FD1A3690BB1802B7E
:1057C00031D194F83D30A3B3022384F83D30214613
:1057D00051F8040BFFF736FF012384F8483084F8B2
:1057E0003E3084F83F3084F8403084F8413084F80B
:1057F000423084F8433084F8443084F8453084F8EB
:10580000463084F8473084F83D30002010BD40F227
:1058100023110D48FBF750FAC7E74FF492710A487D
:10582000FBF74AFAC9E740F225110748FBF744FAAB
:10583000C7E784F83C302046FFF76CFDC4E7012041
:10584000704700BF002C0140783001087047704756
:1058500070477047704770477047026852E8003FD2
:1058600023F0C00342E800310029F6D1026802F1BA
:10587000080353E8003F23F40003083242E80031F4
:105880000029F3D12023C0F884307047026852E821
:10589000003F23F4907342E800310029F6D10268FA
:1058A00002F1080353E8003F23F0805323F0010383
:1058B000083242E800310029F1D1C36E012B06D035
:1058C0002023C0F888300023C3660367704702684E
:1058D00052E8003F23F0100342E800310029F6D1DE
:1058E000EEE700001346D0F88420202A4AD110B5F4
:1058F0000446002948D0002B48D090F88020012A87
:1059000046D0012280F880200165A0F85430A0F82C
:1059100056300022C0F88C202122C0F88420826FEB
:10592000E2B11C49D162826F1B491163826F1B492E
:105930005163826F0021916302682832016D806F8C
:10594000FBF768FE50B11023C4F88C30002384F8B4
:1059500080302023C4F88430012012E023684022E4
:105960001A62002384F88030226802F1080353E8A9
:10597000003F43F08003083242E800310029F3D1B0
:10598000002010BD022070470120FAE70120F8E74F
:105990000220F6E7A15900080F5A00081B5A000818
:1059A00008B50346806A1B681B6813F0200F18D1E6
:1059B0000023A0F85630026802F1080353E8003FC4
:1059C00023F08003083242E800310029F3D1026855
:1059D00052E8003F43F0400342E800310029F6D18D
:1059E00008BD09F029FAFBE708B5026852E8003F54
:1059F00023F0400342E800310029F6D12023C0F80B
:105A000084300023436709F017FA08BD704708B5D2
:105A1000806AFFF7FBFF08BD704738B5846AD4F889
:105A20008420D4F8885023689B6813F0800F01D03D
:105A3000212A10D023689B6813F0400F01D0222D3B
:105A400010D0D4F88C3043F01003C4F88C302046CA
:105A5000FFF7E2FF38BD0023A4F856302046FFF7D9
:105A6000FCFEE7E70023A4F85E302046FFF70EFFB8
:105A7000E7E708B5806A0023A0F85E30A0F856304A
:105A8000FFF7CAFF08BD704770B504460168CB69CF
:105A900008688D6840F60F021A4008D113F0200FF5
:105AA00005D010F0200F34D115F0805F31D12AB12C
:105AB000954A2A4033D1954E304230D1E26E012AC8
:105AC00000F0C38013F4801F03D015F4800F40F062
:105AD0005B8113F0800F07D010F0800F40F05B81E6
